{
	"etherunits-and-timeunit-contract.sol": {
		"learnEtherUnits": {
			"abi": [
				{
					"inputs": [],
					"name": "exercise",
					"outputs": [],
					"stateMutability": "pure",
					"type": "function"
				},
				{
					"inputs": [],
					"name": "test",
					"outputs": [],
					"stateMutability": "pure",
					"type": "function"
				}
			],
			"devdoc": {
				"kind": "dev",
				"methods": {},
				"version": 1
			},
			"evm": {
				"assembly": "    /* \"etherunits-and-timeunit-contract.sol\":118:762  contract learnEtherUnits {... */\n  mstore(0x40, 0x80)\n  callvalue\n  dup1\n  iszero\n  tag_1\n  jumpi\n  0x00\n  dup1\n  revert\ntag_1:\n  pop\n  dataSize(sub_0)\n  dup1\n  dataOffset(sub_0)\n  0x00\n  codecopy\n  0x00\n  return\nstop\n\nsub_0: assembly {\n        /* \"etherunits-and-timeunit-contract.sol\":118:762  contract learnEtherUnits {... */\n      mstore(0x40, 0x80)\n      callvalue\n      dup1\n      iszero\n      tag_1\n      jumpi\n      0x00\n      dup1\n      revert\n    tag_1:\n      pop\n      jumpi(tag_2, lt(calldatasize, 0x04))\n      shr(0xe0, calldataload(0x00))\n      dup1\n      0xd32cb0fe\n      eq\n      tag_3\n      jumpi\n      dup1\n      0xf8a8fd6d\n      eq\n      tag_4\n      jumpi\n    tag_2:\n      0x00\n      dup1\n      revert\n        /* \"etherunits-and-timeunit-contract.sol\":537:760  function exercise() public pure {... */\n    tag_3:\n      tag_5\n      tag_6\n      jump\t// in\n    tag_5:\n      stop\n        /* \"etherunits-and-timeunit-contract.sol\":149:531  function test() public pure {... */\n    tag_4:\n      tag_7\n      tag_8\n      jump\t// in\n    tag_7:\n      stop\n        /* \"etherunits-and-timeunit-contract.sol\":537:760  function exercise() public pure {... */\n    tag_6:\n        /* \"etherunits-and-timeunit-contract.sol\":599:609  60 seconds */\n      0x3c\n        /* \"etherunits-and-timeunit-contract.sol\":586:595  1 minutes */\n      dup1\n        /* \"etherunits-and-timeunit-contract.sol\":586:609  1 minutes == 60 seconds */\n      eq\n        /* \"etherunits-and-timeunit-contract.sol\":579:610  assert(1 minutes == 60 seconds) */\n      tag_10\n      jumpi\n      tag_11\n      tag_12\n      jump\t// in\n    tag_11:\n    tag_10:\n        /* \"etherunits-and-timeunit-contract.sol\":639:651  1440 minutes */\n      0x015180\n        /* \"etherunits-and-timeunit-contract.sol\":627:635  24 hours */\n      dup1\n        /* \"etherunits-and-timeunit-contract.sol\":627:651  24 hours == 1440 minutes */\n      eq\n        /* \"etherunits-and-timeunit-contract.sol\":620:652  assert(24 hours == 1440 minutes) */\n      tag_13\n      jumpi\n      tag_14\n      tag_12\n      jump\t// in\n    tag_14:\n    tag_13:\n        /* \"etherunits-and-timeunit-contract.sol\":679:687  24 hours */\n      0x015180\n        /* \"etherunits-and-timeunit-contract.sol\":669:675  1 days */\n      dup1\n        /* \"etherunits-and-timeunit-contract.sol\":669:687  1 days == 24 hours */\n      eq\n        /* \"etherunits-and-timeunit-contract.sol\":662:688  assert(1 days == 24 hours) */\n      tag_15\n      jumpi\n      tag_16\n      tag_12\n      jump\t// in\n    tag_16:\n    tag_15:\n        /* \"etherunits-and-timeunit-contract.sol\":716:722  7 days */\n      0x093a80\n        /* \"etherunits-and-timeunit-contract.sol\":705:712  1 weeks */\n      dup1\n        /* \"etherunits-and-timeunit-contract.sol\":705:722  1 weeks == 7 days */\n      eq\n        /* \"etherunits-and-timeunit-contract.sol\":698:723  assert(1 weeks == 7 days) */\n      tag_17\n      jumpi\n      tag_18\n      tag_12\n      jump\t// in\n    tag_18:\n    tag_17:\n        /* \"etherunits-and-timeunit-contract.sol\":747:752  9 + 2 */\n      0x0b\n        /* \"etherunits-and-timeunit-contract.sol\":741:743  10 */\n      0x0a\n        /* \"etherunits-and-timeunit-contract.sol\":741:752  10 == 9 + 2 */\n      eq\n        /* \"etherunits-and-timeunit-contract.sol\":734:753  assert(10 == 9 + 2) */\n      tag_19\n      jumpi\n      tag_20\n      tag_12\n      jump\t// in\n    tag_20:\n    tag_19:\n        /* \"etherunits-and-timeunit-contract.sol\":537:760  function exercise() public pure {... */\n      jump\t// out\n        /* \"etherunits-and-timeunit-contract.sol\":149:531  function test() public pure {... */\n    tag_8:\n        /* \"etherunits-and-timeunit-contract.sol\":274:281  1 ether */\n      0x0de0b6b3a7640000\n        /* \"etherunits-and-timeunit-contract.sol\":247:270  1000000000000000000 wei */\n      dup1\n        /* \"etherunits-and-timeunit-contract.sol\":247:281  1000000000000000000 wei == 1 ether */\n      eq\n        /* \"etherunits-and-timeunit-contract.sol\":240:282  assert(1000000000000000000 wei == 1 ether) */\n      tag_22\n      jumpi\n      tag_23\n      tag_12\n      jump\t// in\n    tag_23:\n    tag_22:\n        /* \"etherunits-and-timeunit-contract.sol\":329:330  1 */\n      0x01\n        /* \"etherunits-and-timeunit-contract.sol\":320:325  1 wei */\n      dup1\n        /* \"etherunits-and-timeunit-contract.sol\":320:330  1 wei == 1 */\n      eq\n        /* \"etherunits-and-timeunit-contract.sol\":313:331  assert(1 wei == 1) */\n      tag_24\n      jumpi\n      tag_25\n      tag_12\n      jump\t// in\n    tag_25:\n    tag_24:\n        /* \"etherunits-and-timeunit-contract.sol\":373:377  1e18 */\n      0x0de0b6b3a7640000\n        /* \"etherunits-and-timeunit-contract.sol\":362:369  1 ether */\n      dup1\n        /* \"etherunits-and-timeunit-contract.sol\":362:377  1 ether == 1e18 */\n      eq\n        /* \"etherunits-and-timeunit-contract.sol\":355:378  assert(1 ether == 1e18) */\n      tag_26\n      jumpi\n      tag_27\n      tag_12\n      jump\t// in\n    tag_27:\n    tag_26:\n        /* \"etherunits-and-timeunit-contract.sol\":500:523  2000000000000000000 wei */\n      0x1bc16d674ec80000\n        /* \"etherunits-and-timeunit-contract.sol\":489:496  2 ether */\n      dup1\n        /* \"etherunits-and-timeunit-contract.sol\":489:523  2 ether == 2000000000000000000 wei */\n      eq\n        /* \"etherunits-and-timeunit-contract.sol\":482:524  assert(2 ether == 2000000000000000000 wei) */\n      tag_28\n      jumpi\n      tag_29\n      tag_12\n      jump\t// in\n    tag_29:\n    tag_28:\n        /* \"etherunits-and-timeunit-contract.sol\":149:531  function test() public pure {... */\n      jump\t// out\n        /* \"#utility.yul\":7:187   */\n    tag_12:\n        /* \"#utility.yul\":55:132   */\n      0x4e487b7100000000000000000000000000000000000000000000000000000000\n        /* \"#utility.yul\":52:53   */\n      0x00\n        /* \"#utility.yul\":45:133   */\n      mstore\n        /* \"#utility.yul\":152:156   */\n      0x01\n        /* \"#utility.yul\":149:150   */\n      0x04\n        /* \"#utility.yul\":142:157   */\n      mstore\n        /* \"#utility.yul\":176:180   */\n      0x24\n        /* \"#utility.yul\":173:174   */\n      0x00\n        /* \"#utility.yul\":166:181   */\n      revert\n\n    auxdata: 0xa26469706673582212202b5bc5f8bf0e822dc374515d7152cf030d1242b8e7b6ee1d28205a9b4898343464736f6c63430008070033\n}\n",
				"bytecode": {
					"linkReferences": {},
					"object": "608060405234801561001057600080fd5b5061016d806100206000396000f3fe608060405234801561001057600080fd5b50600436106100365760003560e01c8063d32cb0fe1461003b578063f8a8fd6d14610045575b600080fd5b61004361004f565b005b61004d6100ad565b005b603c80146100605761005f610108565b5b62015180801461007357610072610108565b5b62015180801461008657610085610108565b5b62093a80801461009957610098610108565b5b600b600a146100ab576100aa610108565b5b565b670de0b6b3a764000080146100c5576100c4610108565b5b600180146100d6576100d5610108565b5b670de0b6b3a764000080146100ee576100ed610108565b5b671bc16d674ec80000801461010657610105610108565b5b565b7f4e487b7100000000000000000000000000000000000000000000000000000000600052600160045260246000fdfea26469706673582212202b5bc5f8bf0e822dc374515d7152cf030d1242b8e7b6ee1d28205a9b4898343464736f6c63430008070033",
					"opcodes": "PUSH1 0x80 PUSH1 0x40 MSTORE CALLVALUE DUP1 ISZERO PUSH2 0x10 JUMPI PUSH1 0x0 DUP1 REVERT JUMPDEST POP PUSH2 0x16D DUP1 PUSH2 0x20 PUSH1 0x0 CODECOPY PUSH1 0x0 RETURN INVALID PUSH1 0x80 PUSH1 0x40 MSTORE CALLVALUE DUP1 ISZERO PUSH2 0x10 JUMPI PUSH1 0x0 DUP1 REVERT JUMPDEST POP PUSH1 0x4 CALLDATASIZE LT PUSH2 0x36 JUMPI PUSH1 0x0 CALLDATALOAD PUSH1 0xE0 SHR DUP1 PUSH4 0xD32CB0FE EQ PUSH2 0x3B JUMPI DUP1 PUSH4 0xF8A8FD6D EQ PUSH2 0x45 JUMPI JUMPDEST PUSH1 0x0 DUP1 REVERT JUMPDEST PUSH2 0x43 PUSH2 0x4F JUMP JUMPDEST STOP JUMPDEST PUSH2 0x4D PUSH2 0xAD JUMP JUMPDEST STOP JUMPDEST PUSH1 0x3C DUP1 EQ PUSH2 0x60 JUMPI PUSH2 0x5F PUSH2 0x108 JUMP JUMPDEST JUMPDEST PUSH3 0x15180 DUP1 EQ PUSH2 0x73 JUMPI PUSH2 0x72 PUSH2 0x108 JUMP JUMPDEST JUMPDEST PUSH3 0x15180 DUP1 EQ PUSH2 0x86 JUMPI PUSH2 0x85 PUSH2 0x108 JUMP JUMPDEST JUMPDEST PUSH3 0x93A80 DUP1 EQ PUSH2 0x99 JUMPI PUSH2 0x98 PUSH2 0x108 JUMP JUMPDEST JUMPDEST PUSH1 0xB PUSH1 0xA EQ PUSH2 0xAB JUMPI PUSH2 0xAA PUSH2 0x108 JUMP JUMPDEST JUMPDEST JUMP JUMPDEST PUSH8 0xDE0B6B3A7640000 DUP1 EQ PUSH2 0xC5 JUMPI PUSH2 0xC4 PUSH2 0x108 JUMP JUMPDEST JUMPDEST PUSH1 0x1 DUP1 EQ PUSH2 0xD6 JUMPI PUSH2 0xD5 PUSH2 0x108 JUMP JUMPDEST JUMPDEST PUSH8 0xDE0B6B3A7640000 DUP1 EQ PUSH2 0xEE JUMPI PUSH2 0xED PUSH2 0x108 JUMP JUMPDEST JUMPDEST PUSH8 0x1BC16D674EC80000 DUP1 EQ PUSH2 0x106 JUMPI PUSH2 0x105 PUSH2 0x108 JUMP JUMPDEST JUMPDEST JUMP JUMPDEST PUSH32 0x4E487B7100000000000000000000000000000000000000000000000000000000 PUSH1 0x0 MSTORE PUSH1 0x1 PUSH1 0x4 MSTORE PUSH1 0x24 PUSH1 0x0 REVERT INVALID LOG2 PUSH5 0x6970667358 0x22 SLT KECCAK256 0x2B JUMPDEST 0xC5 0xF8 0xBF 0xE DUP3 0x2D 0xC3 PUSH21 0x515D7152CF030D1242B8E7B6EE1D28205A9B489834 CALLVALUE PUSH5 0x736F6C6343 STOP ADDMOD SMOD STOP CALLER "
				},
				"gasEstimates": {
					"creation": {
						"codeDepositCost": "73000",
						"executionCost": "123",
						"totalCost": "73123"
					},
					"external": {
						"exercise()": "266",
						"test()": "236"
					}
				},
				"methodIdentifiers": {
					"exercise()": "d32cb0fe",
					"test()": "f8a8fd6d"
				}
			},
			"storageLayout": {
				"storage": [],
				"types": null
			},
			"userdoc": {
				"kind": "user",
				"methods": {},
				"version": 1
			}
		}
	}
}