{
	"data": {
		"bytecode": {
			"linkReferences": {},
			"object": "608060405234801561001057600080fd5b5061016d806100206000396000f3fe608060405234801561001057600080fd5b50600436106100365760003560e01c8063d32cb0fe1461003b578063f8a8fd6d14610045575b600080fd5b61004361004f565b005b61004d6100ad565b005b603c80146100605761005f610108565b5b62015180801461007357610072610108565b5b62015180801461008657610085610108565b5b62093a80801461009957610098610108565b5b600b600a146100ab576100aa610108565b5b565b670de0b6b3a764000080146100c5576100c4610108565b5b600180146100d6576100d5610108565b5b670de0b6b3a764000080146100ee576100ed610108565b5b671bc16d674ec80000801461010657610105610108565b5b565b7f4e487b7100000000000000000000000000000000000000000000000000000000600052600160045260246000fdfea26469706673582212202b5bc5f8bf0e822dc374515d7152cf030d1242b8e7b6ee1d28205a9b4898343464736f6c63430008070033",
			"opcodes": "PUSH1 0x80 PUSH1 0x40 MSTORE CALLVALUE DUP1 ISZERO PUSH2 0x10 JUMPI PUSH1 0x0 DUP1 REVERT JUMPDEST POP PUSH2 0x16D DUP1 PUSH2 0x20 PUSH1 0x0 CODECOPY PUSH1 0x0 RETURN INVALID PUSH1 0x80 PUSH1 0x40 MSTORE CALLVALUE DUP1 ISZERO PUSH2 0x10 JUMPI PUSH1 0x0 DUP1 REVERT JUMPDEST POP PUSH1 0x4 CALLDATASIZE LT PUSH2 0x36 JUMPI PUSH1 0x0 CALLDATALOAD PUSH1 0xE0 SHR DUP1 PUSH4 0xD32CB0FE EQ PUSH2 0x3B JUMPI DUP1 PUSH4 0xF8A8FD6D EQ PUSH2 0x45 JUMPI JUMPDEST PUSH1 0x0 DUP1 REVERT JUMPDEST PUSH2 0x43 PUSH2 0x4F JUMP JUMPDEST STOP JUMPDEST PUSH2 0x4D PUSH2 0xAD JUMP JUMPDEST STOP JUMPDEST PUSH1 0x3C DUP1 EQ PUSH2 0x60 JUMPI PUSH2 0x5F PUSH2 0x108 JUMP JUMPDEST JUMPDEST PUSH3 0x15180 DUP1 EQ PUSH2 0x73 JUMPI PUSH2 0x72 PUSH2 0x108 JUMP JUMPDEST JUMPDEST PUSH3 0x15180 DUP1 EQ PUSH2 0x86 JUMPI PUSH2 0x85 PUSH2 0x108 JUMP JUMPDEST JUMPDEST PUSH3 0x93A80 DUP1 EQ PUSH2 0x99 JUMPI PUSH2 0x98 PUSH2 0x108 JUMP JUMPDEST JUMPDEST PUSH1 0xB PUSH1 0xA EQ PUSH2 0xAB JUMPI PUSH2 0xAA PUSH2 0x108 JUMP JUMPDEST JUMPDEST JUMP JUMPDEST PUSH8 0xDE0B6B3A7640000 DUP1 EQ PUSH2 0xC5 JUMPI PUSH2 0xC4 PUSH2 0x108 JUMP JUMPDEST JUMPDEST PUSH1 0x1 DUP1 EQ PUSH2 0xD6 JUMPI PUSH2 0xD5 PUSH2 0x108 JUMP JUMPDEST JUMPDEST PUSH8 0xDE0B6B3A7640000 DUP1 EQ PUSH2 0xEE JUMPI PUSH2 0xED PUSH2 0x108 JUMP JUMPDEST JUMPDEST PUSH8 0x1BC16D674EC80000 DUP1 EQ PUSH2 0x106 JUMPI PUSH2 0x105 PUSH2 0x108 JUMP JUMPDEST JUMPDEST JUMP JUMPDEST PUSH32 0x4E487B7100000000000000000000000000000000000000000000000000000000 PUSH1 0x0 MSTORE PUSH1 0x1 PUSH1 0x4 MSTORE PUSH1 0x24 PUSH1 0x0 REVERT INVALID LOG2 PUSH5 0x6970667358 0x22 SLT KECCAK256 0x2B JUMPDEST 0xC5 0xF8 0xBF 0xE DUP3 0x2D 0xC3 PUSH21 0x515D7152CF030D1242B8E7B6EE1D28205A9B489834 CALLVALUE PUSH5 0x736F6C6343 STOP ADDMOD SMOD STOP CALLER "
		},
		"gasEstimates": {
			"creation": {
				"codeDepositCost": "73000",
				"executionCost": "123",
				"totalCost": "73123"
			},
			"external": {
				"exercise()": "266",
				"test()": "236"
			}
		},
		"methodIdentifiers": {
			"exercise()": "d32cb0fe",
			"test()": "f8a8fd6d"
		}
	},
	"abi": [
		{
			"inputs": [],
			"name": "exercise",
			"outputs": [],
			"stateMutability": "pure",
			"type": "function"
		},
		{
			"inputs": [],
			"name": "test",
			"outputs": [],
			"stateMutability": "pure",
			"type": "function"
		}
	]
}